{"abi":[{"type":"constructor","inputs":[{"name":"_zkvContract","type":"address","internalType":"address"},{"name":"_vkHash","type":"bytes32","internalType":"bytes32"}],"stateMutability":"nonpayable"},{"type":"function","name":"PROVING_SYSTEM_ID","inputs":[],"outputs":[{"name":"","type":"bytes32","internalType":"bytes32"}],"stateMutability":"view"},{"type":"function","name":"checkCertification","inputs":[{"name":"student","type":"address","internalType":"address"}],"outputs":[{"name":"","type":"bool","internalType":"bool"}],"stateMutability":"view"},{"type":"function","name":"getSubmission","inputs":[{"name":"student","type":"address","internalType":"address"}],"outputs":[{"name":"","type":"string","internalType":"string"}],"stateMutability":"view"},{"type":"function","name":"hasCertified","inputs":[{"name":"","type":"address","internalType":"address"}],"outputs":[{"name":"","type":"bool","internalType":"bool"}],"stateMutability":"view"},{"type":"function","name":"studentSubmissions","inputs":[{"name":"","type":"address","internalType":"address"}],"outputs":[{"name":"","type":"string","internalType":"string"}],"stateMutability":"view"},{"type":"function","name":"submitAssignment","inputs":[{"name":"assignmentHash","type":"string","internalType":"string"},{"name":"attestationId","type":"uint256","internalType":"uint256"},{"name":"merklePath","type":"bytes32[]","internalType":"bytes32[]"},{"name":"leafCount","type":"uint256","internalType":"uint256"},{"name":"index","type":"uint256","internalType":"uint256"}],"outputs":[],"stateMutability":"nonpayable"},{"type":"function","name":"vkHash","inputs":[],"outputs":[{"name":"","type":"bytes32","internalType":"bytes32"}],"stateMutability":"view"},{"type":"function","name":"zkvContract","inputs":[],"outputs":[{"name":"","type":"address","internalType":"address"}],"stateMutability":"view"},{"type":"event","name":"AssignmentSubmitted","inputs":[{"name":"student","type":"address","indexed":true,"internalType":"address"},{"name":"assignmentHash","type":"string","indexed":false,"internalType":"string"}],"anonymous":false},{"type":"event","name":"CertificateIssued","inputs":[{"name":"student","type":"address","indexed":true,"internalType":"address"}],"anonymous":false}],"bytecode":{"object":"0x60c060405234801561001057600080fd5b50604051610b0b380380610b0b83398101604081905261002f91610045565b6001600160a01b0390911660805260a05261007f565b6000806040838503121561005857600080fd5b82516001600160a01b038116811461006f57600080fd5b6020939093015192949293505050565b60805160a051610a596100b26000396000818161010a01526104b701526000818161013f015261054e0152610a596000f3fe608060405234801561001057600080fd5b50600436106100885760003560e01c80637ee683731161005b5780637ee683731461013a578063a8898a2014610179578063c3e149cc146101ab578063dde1a82c146101c057600080fd5b80631ab327661461008d578063321052da146100b657806340bc7fa2146100f25780634fe840f514610105575b600080fd5b6100a061009b366004610671565b6101e3565b6040516100ad91906106c5565b60405180910390f35b6100e26100c4366004610671565b6001600160a01b031660009081526020819052604090205460ff1690565b60405190151581526020016100ad565b6100a0610100366004610671565b61027d565b61012c7f000000000000000000000000000000000000000000000000000000000000000081565b6040519081526020016100ad565b6101617f000000000000000000000000000000000000000000000000000000000000000081565b6040516001600160a01b0390911681526020016100ad565b61012c6040516633b937ba34189b60c91b60208201526027016040516020818303038152906040528051906020012081565b6101be6101b9366004610744565b610329565b005b6100e26101ce366004610671565b60006020819052908152604090205460ff1681565b600160205260009081526040902080546101fc90610801565b80601f016020809104026020016040519081016040528092919081815260200182805461022890610801565b80156102755780601f1061024a57610100808354040283529160200191610275565b820191906000526020600020905b81548152906001019060200180831161025857829003601f168201915b505050505081565b6001600160a01b03811660009081526001602052604090208054606091906102a490610801565b80601f01602080910402602001604051908101604052809291908181526020018280546102d090610801565b801561031d5780601f106102f25761010080835404028352916020019161031d565b820191906000526020600020905b81548152906001019060200180831161030057829003601f168201915b50505050509050919050565b3360009081526020819052604090205460ff161561038e5760405162461bcd60e51b815260206004820152601a60248201527f436572746966696361746520616c72656164792069737375656400000000000060448201526064015b60405180910390fd5b61039c85338686868661047f565b6103d85760405162461bcd60e51b815260206004820152600d60248201526c24b73b30b634b210383937b7b360991b6044820152606401610385565b3360009081526001602052604090206103f28789836108a0565b50336001600160a01b03167fb1490fd36130caa753555c3f302b745b4cbe555e04bb853c5aeea6dde3b73262888860405161042e929190610960565b60405180910390a233600081815260208190526040808220805460ff19166001179055517f415ffddd5c0c3058e868a0b47e0a33db469bd6c5193ebcb5a4c1337f36acf5289190a250505050505050565b60008060405160200161049f906633b937ba34189b60c91b815260070190565b604051602081830303815290604052805190602001207f00000000000000000000000000000000000000000000000000000000000000006104ef896001600160a01b0316608081811c91901b1790565b60405160200161050191815260200190565b60408051601f1981840301815282825280516020918201209083019490945281019190915260608101919091526080016040516020818303038152906040528051906020012090506000807f00000000000000000000000000000000000000000000000000000000000000006001600160a01b03168a848a8a8a8a6040516024016105919695949392919061098f565b60408051601f198184030181529181526020820180516001600160e01b0316636ef53c4360e11b179052516105c691906109e5565b600060405180830381855afa9150503d8060008114610601576040519150601f19603f3d011682016040523d82523d6000602084013e610606565b606091505b50915091508161064f5760405162461bcd60e51b81526020600482015260146024820152731e9ad5995c9a599e4818d85b1b0819985a5b195960621b6044820152606401610385565b808060200190518101906106639190610a01565b9a9950505050505050505050565b60006020828403121561068357600080fd5b81356001600160a01b038116811461069a57600080fd5b9392505050565b60005b838110156106bc5781810151838201526020016106a4565b50506000910152565b60208152600082518060208401526106e48160408501602087016106a1565b601f01601f19169190910160400192915050565b60008083601f84011261070a57600080fd5b50813567ffffffffffffffff81111561072257600080fd5b6020830191508360208260051b850101111561073d57600080fd5b9250929050565b600080600080600080600060a0888a03121561075f57600080fd5b873567ffffffffffffffff81111561077657600080fd5b8801601f81018a1361078757600080fd5b803567ffffffffffffffff81111561079e57600080fd5b8a60208284010111156107b057600080fd5b6020918201985096508801359450604088013567ffffffffffffffff8111156107d857600080fd5b6107e48a828b016106f8565b989b979a5095989597966060870135966080013595509350505050565b600181811c9082168061081557607f821691505b60208210810361083557634e487b7160e01b600052602260045260246000fd5b50919050565b634e487b7160e01b600052604160045260246000fd5b601f82111561089b57806000526020600020601f840160051c810160208510156108785750805b601f840160051c820191505b818110156108985760008155600101610884565b50505b505050565b67ffffffffffffffff8311156108b8576108b861083b565b6108cc836108c68354610801565b83610851565b6000601f84116001811461090057600085156108e85750838201355b600019600387901b1c1916600186901b178355610898565b600083815260209020601f19861690835b828110156109315786850135825560209485019460019092019101610911565b508682101561094e5760001960f88860031b161c19848701351681555b505060018560011b0183555050505050565b60208152816020820152818360408301376000818301604090810191909152601f909201601f19160101919050565b8681526020810186905260a060408201819052810184905260006001600160fb1b038511156109bd57600080fd5b8460051b808760c085013760608301949094525060808101919091520160c001949350505050565b600082516109f78184602087016106a1565b9190910192915050565b600060208284031215610a1357600080fd5b8151801515811461069a57600080fdfea2646970667358221220f3fd0e46d90d47adc8a4d8765af91747f23e10044dcad97e231b2b368446856564736f6c634300081c0033","linkReferences":{}},"methodIdentifiers":{"PROVING_SYSTEM_ID()":"a8898a20","checkCertification(address)":"321052da","getSubmission(address)":"40bc7fa2","hasCertified(address)":"dde1a82c","studentSubmissions(address)":"1ab32766","submitAssignment(string,uint256,bytes32[],uint256,uint256)":"c3e149cc","vkHash()":"4fe840f5","zkvContract()":"7ee68373"},"id":0}